{
    "abi": [
        {
            "type": "constructor",
            "inputs": [
                {
                    "name": "_proofVerifier",
                    "type": "address",
                    "internalType": "address"
                },
                {
                    "name": "_hookMultiPlexer",
                    "type": "address",
                    "internalType": "address"
                }
            ],
            "stateMutability": "nonpayable"
        },
        {
            "type": "function",
            "name": "cumulativeLockedForWallet",
            "inputs": [],
            "outputs": [
                {
                    "name": "",
                    "type": "tuple[]",
                    "internalType": "struct TokenData[]",
                    "components": [
                        {
                            "name": "token",
                            "type": "address",
                            "internalType": "address"
                        },
                        {
                            "name": "amount",
                            "type": "uint256",
                            "internalType": "uint256"
                        }
                    ]
                }
            ],
            "stateMutability": "view"
        },
        {
            "type": "function",
            "name": "disableSessionKey",
            "inputs": [
                {
                    "name": "_sessionKey",
                    "type": "address",
                    "internalType": "address"
                }
            ],
            "outputs": [],
            "stateMutability": "nonpayable"
        },
        {
            "type": "function",
            "name": "enableSessionKey",
            "inputs": [
                {
                    "name": "_sessionData",
                    "type": "bytes",
                    "internalType": "bytes"
                }
            ],
            "outputs": [],
            "stateMutability": "nonpayable"
        },
        {
            "type": "function",
            "name": "getLockedTokensForSessionKey",
            "inputs": [
                {
                    "name": "_sessionKey",
                    "type": "address",
                    "internalType": "address"
                }
            ],
            "outputs": [
                {
                    "name": "",
                    "type": "tuple[]",
                    "internalType": "struct ICredibleAccountModule.LockedToken[]",
                    "components": [
                        {
                            "name": "token",
                            "type": "address",
                            "internalType": "address"
                        },
                        {
                            "name": "lockedAmount",
                            "type": "uint256",
                            "internalType": "uint256"
                        },
                        {
                            "name": "claimedAmount",
                            "type": "uint256",
                            "internalType": "uint256"
                        }
                    ]
                }
            ],
            "stateMutability": "view"
        },
        {
            "type": "function",
            "name": "getSessionKeyData",
            "inputs": [
                {
                    "name": "_sessionKey",
                    "type": "address",
                    "internalType": "address"
                }
            ],
            "outputs": [
                {
                    "name": "",
                    "type": "tuple",
                    "internalType": "struct SessionData",
                    "components": [
                        {
                            "name": "sessionKey",
                            "type": "address",
                            "internalType": "address"
                        },
                        {
                            "name": "validAfter",
                            "type": "uint48",
                            "internalType": "uint48"
                        },
                        {
                            "name": "validUntil",
                            "type": "uint48",
                            "internalType": "uint48"
                        },
                        {
                            "name": "live",
                            "type": "bool",
                            "internalType": "bool"
                        }
                    ]
                }
            ],
            "stateMutability": "view"
        },
        {
            "type": "function",
            "name": "getSessionKeysByWallet",
            "inputs": [],
            "outputs": [
                {
                    "name": "",
                    "type": "address[]",
                    "internalType": "address[]"
                }
            ],
            "stateMutability": "view"
        },
        {
            "type": "function",
            "name": "getSessionKeysByWallet",
            "inputs": [
                {
                    "name": "_wallet",
                    "type": "address",
                    "internalType": "address"
                }
            ],
            "outputs": [
                {
                    "name": "",
                    "type": "address[]",
                    "internalType": "address[]"
                }
            ],
            "stateMutability": "view"
        },
        {
            "type": "function",
            "name": "hookMultiPlexer",
            "inputs": [],
            "outputs": [
                {
                    "name": "",
                    "type": "address",
                    "internalType": "contract IHookMultiPlexer"
                }
            ],
            "stateMutability": "view"
        },
        {
            "type": "function",
            "name": "isInitialized",
            "inputs": [
                {
                    "name": "smartAccount",
                    "type": "address",
                    "internalType": "address"
                }
            ],
            "outputs": [
                {
                    "name": "",
                    "type": "bool",
                    "internalType": "bool"
                }
            ],
            "stateMutability": "view"
        },
        {
            "type": "function",
            "name": "isModuleType",
            "inputs": [
                {
                    "name": "moduleTypeId",
                    "type": "uint256",
                    "internalType": "uint256"
                }
            ],
            "outputs": [
                {
                    "name": "",
                    "type": "bool",
                    "internalType": "bool"
                }
            ],
            "stateMutability": "pure"
        },
        {
            "type": "function",
            "name": "isSessionClaimed",
            "inputs": [
                {
                    "name": "_sessionKey",
                    "type": "address",
                    "internalType": "address"
                }
            ],
            "outputs": [
                {
                    "name": "",
                    "type": "bool",
                    "internalType": "bool"
                }
            ],
            "stateMutability": "view"
        },
        {
            "type": "function",
            "name": "isValidSignatureWithSender",
            "inputs": [
                {
                    "name": "sender",
                    "type": "address",
                    "internalType": "address"
                },
                {
                    "name": "hash",
                    "type": "bytes32",
                    "internalType": "bytes32"
                },
                {
                    "name": "data",
                    "type": "bytes",
                    "internalType": "bytes"
                }
            ],
            "outputs": [
                {
                    "name": "",
                    "type": "bytes4",
                    "internalType": "bytes4"
                }
            ],
            "stateMutability": "view"
        },
        {
            "type": "function",
            "name": "lockedTokens",
            "inputs": [
                {
                    "name": "sessionKey",
                    "type": "address",
                    "internalType": "address"
                },
                {
                    "name": "",
                    "type": "uint256",
                    "internalType": "uint256"
                }
            ],
            "outputs": [
                {
                    "name": "token",
                    "type": "address",
                    "internalType": "address"
                },
                {
                    "name": "lockedAmount",
                    "type": "uint256",
                    "internalType": "uint256"
                },
                {
                    "name": "claimedAmount",
                    "type": "uint256",
                    "internalType": "uint256"
                }
            ],
            "stateMutability": "view"
        },
        {
            "type": "function",
            "name": "moduleInitialized",
            "inputs": [
                {
                    "name": "wallet",
                    "type": "address",
                    "internalType": "address"
                }
            ],
            "outputs": [
                {
                    "name": "validatorInitialized",
                    "type": "bool",
                    "internalType": "bool"
                },
                {
                    "name": "hookInitialized",
                    "type": "bool",
                    "internalType": "bool"
                }
            ],
            "stateMutability": "view"
        },
        {
            "type": "function",
            "name": "onInstall",
            "inputs": [
                {
                    "name": "data",
                    "type": "bytes",
                    "internalType": "bytes"
                }
            ],
            "outputs": [],
            "stateMutability": "nonpayable"
        },
        {
            "type": "function",
            "name": "onUninstall",
            "inputs": [
                {
                    "name": "data",
                    "type": "bytes",
                    "internalType": "bytes"
                }
            ],
            "outputs": [],
            "stateMutability": "nonpayable"
        },
        {
            "type": "function",
            "name": "postCheck",
            "inputs": [
                {
                    "name": "hookData",
                    "type": "bytes",
                    "internalType": "bytes"
                }
            ],
            "outputs": [],
            "stateMutability": "nonpayable"
        },
        {
            "type": "function",
            "name": "preCheck",
            "inputs": [
                {
                    "name": "msgSender",
                    "type": "address",
                    "internalType": "address"
                },
                {
                    "name": "msgValue",
                    "type": "uint256",
                    "internalType": "uint256"
                },
                {
                    "name": "msgData",
                    "type": "bytes",
                    "internalType": "bytes"
                }
            ],
            "outputs": [
                {
                    "name": "hookData",
                    "type": "bytes",
                    "internalType": "bytes"
                }
            ],
            "stateMutability": "nonpayable"
        },
        {
            "type": "function",
            "name": "proofVerifier",
            "inputs": [],
            "outputs": [
                {
                    "name": "",
                    "type": "address",
                    "internalType": "contract IProofVerifier"
                }
            ],
            "stateMutability": "view"
        },
        {
            "type": "function",
            "name": "sessionData",
            "inputs": [
                {
                    "name": "sessionKey",
                    "type": "address",
                    "internalType": "address"
                },
                {
                    "name": "wallet",
                    "type": "address",
                    "internalType": "address"
                }
            ],
            "outputs": [
                {
                    "name": "sessionKey",
                    "type": "address",
                    "internalType": "address"
                },
                {
                    "name": "validAfter",
                    "type": "uint48",
                    "internalType": "uint48"
                },
                {
                    "name": "validUntil",
                    "type": "uint48",
                    "internalType": "uint48"
                },
                {
                    "name": "live",
                    "type": "bool",
                    "internalType": "bool"
                }
            ],
            "stateMutability": "view"
        },
        {
            "type": "function",
            "name": "tokenTotalLockedForWallet",
            "inputs": [
                {
                    "name": "_token",
                    "type": "address",
                    "internalType": "address"
                }
            ],
            "outputs": [
                {
                    "name": "",
                    "type": "uint256",
                    "internalType": "uint256"
                }
            ],
            "stateMutability": "view"
        },
        {
            "type": "function",
            "name": "validateSessionKeyParams",
            "inputs": [
                {
                    "name": "_sessionKey",
                    "type": "address",
                    "internalType": "address"
                },
                {
                    "name": "userOp",
                    "type": "tuple",
                    "internalType": "struct PackedUserOperation",
                    "components": [
                        {
                            "name": "sender",
                            "type": "address",
                            "internalType": "address"
                        },
                        {
                            "name": "nonce",
                            "type": "uint256",
                            "internalType": "uint256"
                        },
                        {
                            "name": "initCode",
                            "type": "bytes",
                            "internalType": "bytes"
                        },
                        {
                            "name": "callData",
                            "type": "bytes",
                            "internalType": "bytes"
                        },
                        {
                            "name": "accountGasLimits",
                            "type": "bytes32",
                            "internalType": "bytes32"
                        },
                        {
                            "name": "preVerificationGas",
                            "type": "uint256",
                            "internalType": "uint256"
                        },
                        {
                            "name": "gasFees",
                            "type": "bytes32",
                            "internalType": "bytes32"
                        },
                        {
                            "name": "paymasterAndData",
                            "type": "bytes",
                            "internalType": "bytes"
                        },
                        {
                            "name": "signature",
                            "type": "bytes",
                            "internalType": "bytes"
                        }
                    ]
                }
            ],
            "outputs": [
                {
                    "name": "",
                    "type": "bool",
                    "internalType": "bool"
                }
            ],
            "stateMutability": "nonpayable"
        },
        {
            "type": "function",
            "name": "validateUserOp",
            "inputs": [
                {
                    "name": "userOp",
                    "type": "tuple",
                    "internalType": "struct PackedUserOperation",
                    "components": [
                        {
                            "name": "sender",
                            "type": "address",
                            "internalType": "address"
                        },
                        {
                            "name": "nonce",
                            "type": "uint256",
                            "internalType": "uint256"
                        },
                        {
                            "name": "initCode",
                            "type": "bytes",
                            "internalType": "bytes"
                        },
                        {
                            "name": "callData",
                            "type": "bytes",
                            "internalType": "bytes"
                        },
                        {
                            "name": "accountGasLimits",
                            "type": "bytes32",
                            "internalType": "bytes32"
                        },
                        {
                            "name": "preVerificationGas",
                            "type": "uint256",
                            "internalType": "uint256"
                        },
                        {
                            "name": "gasFees",
                            "type": "bytes32",
                            "internalType": "bytes32"
                        },
                        {
                            "name": "paymasterAndData",
                            "type": "bytes",
                            "internalType": "bytes"
                        },
                        {
                            "name": "signature",
                            "type": "bytes",
                            "internalType": "bytes"
                        }
                    ]
                },
                {
                    "name": "userOpHash",
                    "type": "bytes32",
                    "internalType": "bytes32"
                }
            ],
            "outputs": [
                {
                    "name": "",
                    "type": "uint256",
                    "internalType": "uint256"
                }
            ],
            "stateMutability": "nonpayable"
        },
        {
            "type": "function",
            "name": "walletSessionKeys",
            "inputs": [
                {
                    "name": "wallet",
                    "type": "address",
                    "internalType": "address"
                },
                {
                    "name": "",
                    "type": "uint256",
                    "internalType": "uint256"
                }
            ],
            "outputs": [
                {
                    "name": "keys",
                    "type": "address",
                    "internalType": "address"
                }
            ],
            "stateMutability": "view"
        },
        {
            "type": "event",
            "name": "CredibleAccountModule_ModuleInstalled",
            "inputs": [
                {
                    "name": "wallet",
                    "type": "address",
                    "indexed": false,
                    "internalType": "address"
                }
            ],
            "anonymous": false
        },
        {
            "type": "event",
            "name": "CredibleAccountModule_ModuleUninstalled",
            "inputs": [
                {
                    "name": "wallet",
                    "type": "address",
                    "indexed": false,
                    "internalType": "address"
                }
            ],
            "anonymous": false
        },
        {
            "type": "event",
            "name": "CredibleAccountModule_SessionKeyDisabled",
            "inputs": [
                {
                    "name": "sessionKey",
                    "type": "address",
                    "indexed": false,
                    "internalType": "address"
                },
                {
                    "name": "wallet",
                    "type": "address",
                    "indexed": false,
                    "internalType": "address"
                }
            ],
            "anonymous": false
        },
        {
            "type": "event",
            "name": "CredibleAccountModule_SessionKeyEnabled",
            "inputs": [
                {
                    "name": "sessionKey",
                    "type": "address",
                    "indexed": true,
                    "internalType": "address"
                },
                {
                    "name": "wallet",
                    "type": "address",
                    "indexed": true,
                    "internalType": "address"
                }
            ],
            "anonymous": false
        },
        {
            "type": "event",
            "name": "CredibleAccountModule_SessionKeyPaused",
            "inputs": [
                {
                    "name": "sessionKey",
                    "type": "address",
                    "indexed": false,
                    "internalType": "address"
                },
                {
                    "name": "wallet",
                    "type": "address",
                    "indexed": false,
                    "internalType": "address"
                }
            ],
            "anonymous": false
        },
        {
            "type": "event",
            "name": "CredibleAccountModule_SessionKeyUnpaused",
            "inputs": [
                {
                    "name": "sessionKey",
                    "type": "address",
                    "indexed": false,
                    "internalType": "address"
                },
                {
                    "name": "wallet",
                    "type": "address",
                    "indexed": false,
                    "internalType": "address"
                }
            ],
            "anonymous": false
        },
        {
            "type": "error",
            "name": "AlreadyInitialized",
            "inputs": [
                {
                    "name": "smartAccount",
                    "type": "address",
                    "internalType": "address"
                }
            ]
        },
        {
            "type": "error",
            "name": "CredibleAccountModule_HookMultiplexerIsNotInstalled",
            "inputs": []
        },
        {
            "type": "error",
            "name": "CredibleAccountModule_InsufficientUnlockedBalance",
            "inputs": [
                {
                    "name": "token",
                    "type": "address",
                    "internalType": "address"
                }
            ]
        },
        {
            "type": "error",
            "name": "CredibleAccountModule_InvalidHookMultiPlexer",
            "inputs": []
        },
        {
            "type": "error",
            "name": "CredibleAccountModule_InvalidModuleType",
            "inputs": []
        },
        {
            "type": "error",
            "name": "CredibleAccountModule_InvalidOnInstallData",
            "inputs": [
                {
                    "name": "wallet",
                    "type": "address",
                    "internalType": "address"
                }
            ]
        },
        {
            "type": "error",
            "name": "CredibleAccountModule_InvalidOnUnInstallData",
            "inputs": [
                {
                    "name": "wallet",
                    "type": "address",
                    "internalType": "address"
                }
            ]
        },
        {
            "type": "error",
            "name": "CredibleAccountModule_InvalidProofVerifier",
            "inputs": []
        },
        {
            "type": "error",
            "name": "CredibleAccountModule_InvalidSessionKey",
            "inputs": []
        },
        {
            "type": "error",
            "name": "CredibleAccountModule_InvalidValidAfter",
            "inputs": []
        },
        {
            "type": "error",
            "name": "CredibleAccountModule_InvalidValidUntil",
            "inputs": [
                {
                    "name": "validUntil",
                    "type": "uint48",
                    "internalType": "uint48"
                }
            ]
        },
        {
            "type": "error",
            "name": "CredibleAccountModule_LockedTokensNotClaimed",
            "inputs": [
                {
                    "name": "sessionKey",
                    "type": "address",
                    "internalType": "address"
                }
            ]
        },
        {
            "type": "error",
            "name": "CredibleAccountModule_ModuleAlreadyInstalled",
            "inputs": []
        },
        {
            "type": "error",
            "name": "CredibleAccountModule_ModuleNotInstalled",
            "inputs": []
        },
        {
            "type": "error",
            "name": "CredibleAccountModule_NotAddedToHookMultiplexer",
            "inputs": []
        },
        {
            "type": "error",
            "name": "CredibleAccountModule_SessionKeyDoesNotExist",
            "inputs": [
                {
                    "name": "session",
                    "type": "address",
                    "internalType": "address"
                }
            ]
        },
        {
            "type": "error",
            "name": "CredibleAccountModule_ValidatorExists",
            "inputs": []
        },
        {
            "type": "error",
            "name": "InvalidTargetAddress",
            "inputs": [
                {
                    "name": "target",
                    "type": "address",
                    "internalType": "address"
                }
            ]
        },
        {
            "type": "error",
            "name": "NotImplemented",
            "inputs": []
        },
        {
            "type": "error",
            "name": "NotInitialized",
            "inputs": [
                {
                    "name": "smartAccount",
                    "type": "address",
                    "internalType": "address"
                }
            ]
        }
    ],
    "bytecode": {
        "object": "0x60c06040523480156200001157600080fd5b5060405162002c4a38038062002c4a8339810160408190526200003491620000b9565b6001600160a01b0382166200005c5760405163f594259d60e01b815260040160405180910390fd5b6001600160a01b038116620000845760405163354cf1cf60e21b815260040160405180910390fd5b6001600160a01b0390811660a05216608052620000f1565b80516001600160a01b0381168114620000b457600080fd5b919050565b60008060408385031215620000cd57600080fd5b620000d8836200009c565b9150620000e8602084016200009c565b90509250929050565b60805160a051612b106200013a6000396000818161045d01528181610aa301528181610b6b01528181610d180152610de00152600081816103af015261133b0152612b106000f3fe608060405234801561001057600080fd5b50600436106101585760003560e01c80638b343e47116100c3578063d60b347f1161007c578063d60b347f146104d5578063d68f602514610501578063d8d38e4214610521578063db08251414610534578063ecd0596114610549578063f551e2ee1461055c57600080fd5b80638b343e471461040f57806394b2a3e31461043257806397003203146104455780639b6e35a014610458578063c037ee191461047f578063c67e85291461049257600080fd5b806352721fdd1161011557806352721fdd146102cc57806353719b6e1461035f5780636d61fe70146103975780637fa417b3146103aa5780638a91b0e3146103e95780638aaa6a40146103fc57600080fd5b8063015187ed1461015d57806307f82e6814610183578063110891c1146101a3578063173bf7da1461028f578063420e59d9146102a4578063495079a0146102b9575b600080fd5b61017061016b366004612272565b610588565b6040519081526020015b60405180910390f35b610196610191366004612272565b61059a565b60405161017a919061228f565b6102446101b1366004612272565b604080516080810182526000808252602082018190529181018290526060810191909152506001600160a01b03908116600090815260026020908152604080832033845282529182902082516080810184528154948516815265ffffffffffff600160a01b8604811693820193909352600160d01b909404909116918301919091526001015460ff161515606082015290565b6040805182516001600160a01b0316815260208084015165ffffffffffff9081169183019190915283830151169181019190915260609182015115159181019190915260800161017a565b6102a261029d366004612332565b610632565b005b6102ac610710565b60405161017a9190612373565b6102a26102c7366004612332565b61077b565b6103276102da3660046123c0565b6002602090815260009283526040808420909152908252902080546001909101546001600160a01b0382169165ffffffffffff600160a01b8204811692600160d01b909204169060ff1684565b604080516001600160a01b0395909516855265ffffffffffff938416602086015291909216908301521515606082015260800161017a565b61037261036d3660046123f9565b610a26565b604080516001600160a01b03909416845260208401929092529082015260600161017a565b6102a26103a5366004612332565b610a72565b6103d17f000000000000000000000000000000000000000000000000000000000000000081565b6040516001600160a01b03909116815260200161017a565b6102a26103f7366004612332565b610c98565b6103d161040a3660046123f9565b6110f3565b61042261041d366004612272565b61112b565b604051901515815260200161017a565b6102ac610440366004612272565b611222565b61017061045336600461243e565b611298565b6103d17f000000000000000000000000000000000000000000000000000000000000000081565b61042261048d366004612482565b611441565b6104be6104a0366004612272565b60006020819052908152604090205460ff8082169161010090041682565b60408051921515835290151560208301520161017a565b6104226104e3366004612272565b6001600160a01b031660009081526020819052604090205460ff1690565b61051461050f3660046124d1565b611525565b60405161017a919061252c565b6102a261052f366004612272565b61156e565b61053c6117d4565b60405161017a91906125cb565b6104226105573660046125de565b6117e4565b61056f61056a3660046124d1565b6117f7565b6040516001600160e01b0319909116815260200161017a565b60006105943383611812565b92915050565b6001600160a01b0381166000908152600360209081526040808320805482518185028101850190935280835260609492939192909184015b82821015610627576000848152602090819020604080516060810182526003860290920180546001600160a01b03168352600180820154848601526002909101549183019190915290835290920191016105d2565b505050509050919050565b600081900361063f575050565b60008061064e83850185612711565b9150915060005b815181101561070957600082828151811061067257610672612756565b6020026020010151600001519050600083838151811061069457610694612756565b602002602001015160200151905060006106ae8684611978565b905060006106bc8785611812565b905082821080156106cc57508082105b156106fa5760405163117bfedd60e01b81526001600160a01b03851660048201526024015b60405180910390fd5b84600101945050505050610655565b5050505050565b3360009081526001602090815260409182902080548351818402810184019094528084526060939283018282801561077157602002820191906000526020600020905b81546001600160a01b03168152600190910190602001808311610753575b5050505050905090565b600080808061078c85870187612787565b929650909450925090506001600160a01b0384166107bd57604051631b36792160e11b815260040160405180910390fd5b8265ffffffffffff166000036107e657604051631adb1da960e01b815260040160405180910390fd5b65ffffffffffff8216158061080b57508265ffffffffffff168265ffffffffffff1611155b1561083357604051635be1acaf60e01b815265ffffffffffff831660048201526024016106f1565b604080516080810182526001600160a01b0380871680835265ffffffffffff808816602080860191825288831686880190815260016060880181815260009687526002845289872033885290935297852096518754935191518516600160d01b026001600160d01b0392909516600160a01b026001600160d01b03199094169616959095179190911793909316178355905191909201805491151560ff199092169190911790555b81518110156109b95760036000866001600160a01b03166001600160a01b03168152602001908152602001600020604051806060016040528084848151811061092657610926612756565b6020026020010151600001516001600160a01b0316815260200184848151811061095257610952612756565b6020908102919091018101518101518252600091810182905283546001808201865594835291819020835160039093020180546001600160a01b0319166001600160a01b0390931692909217825582015181840155604090910151600290910155016108db565b5033600081815260016020818152604080842080549384018155845290832090910180546001600160a01b0319166001600160a01b038916908117909155905190917f6c5b38fe941b034cc9e220510fe3d7b2adcac850c387d30d89111d269832d94591a3505050505050565b60036020528160005260406000208181548110610a4257600080fd5b60009182526020909120600390910201805460018201546002909201546001600160a01b03909116935090915083565b6020811015610a9657604051634dc9bf9960e11b81523360048201526024016106f1565b81356000198101610c56577f00000000000000000000000000000000000000000000000000000000000000006001600160a01b0316336001600160a01b0316630a664dba6040518163ffffffff1660e01b8152600401602060405180830381865afa158015610b09573d6000803e3d6000fd5b505050506040513d601f19601f82011682018060405250810190610b2d91906127f7565b6001600160a01b031614610b5457604051633bedd0a560e11b815260040160405180910390fd5b604051637699b12960e11b81526001600160a01b037f0000000000000000000000000000000000000000000000000000000000000000169063ed33625290610ba59033903090600090600401612814565b6020604051808303816000875af1158015610bc4573d6000803e3d6000fd5b505050506040513d601f19601f82011682018060405250810190610be89190612858565b610c0557604051631f348e8360e21b815260040160405180910390fd5b3360008181526020818152604091829020805460ff1916600117905590519182527fa87f5e64462742b548727aaab1de6eeb5b47c9424d31236adba325e0e1604556910160405180910390a1505050565b60048103610c7f57336000908152602081905260409020805461ff001916610100179055505050565b6040516398fe6c8760e01b815260040160405180910390fd5b6020811015610cbc5760405163f8ae580f60e01b81523360048201526024016106f1565b813560208084013590600090610cd5908590818861287a565b8080601f016020809104026020016040519081016040528093929190818152602001838380828437600092019190915250929350505060001984019050611087577f00000000000000000000000000000000000000000000000000000000000000006001600160a01b0316826001600160a01b0316630a664dba6040518163ffffffff1660e01b8152600401602060405180830381865afa158015610d7e573d6000803e3d6000fd5b505050506040513d601f19601f82011682018060405250810190610da291906127f7565b6001600160a01b031614610dc957604051633bedd0a560e11b815260040160405180910390fd5b604051637699b12960e11b81526001600160a01b037f0000000000000000000000000000000000000000000000000000000000000000169063ed33625290610e1a9085903090600090600401612814565b6020604051808303816000875af1158015610e39573d6000803e3d6000fd5b505050506040513d601f19601f82011682018060405250810190610e5d9190612858565b610e7a57604051631f348e8360e21b815260040160405180910390fd5b6000610e84610710565b905060005b815181101561100d574260026000848481518110610ea957610ea9612756565b6020908102919091018101516001600160a01b03908116835282820193909352604091820160009081209389168152929052902054600160d01b900465ffffffffffff16118015610f195750610f17828281518110610f0a57610f0a612756565b602002602001015161112b565b155b15610f6157818181518110610f3057610f30612756565b60200260200101516040516333530de160e11b81526004016106f191906001600160a01b0391909116815260200190565b60026000838381518110610f7757610f77612756565b6020908102919091018101516001600160a01b039081168352828201939093526040918201600090812093881681529290528120818155600101805460ff19169055825160039190849084908110610fd157610fd1612756565b60200260200101516001600160a01b03166001600160a01b03168152602001908152602001600020600061100591906121d5565b600101610e89565b506001600160a01b038316600090815260016020526040812061102f916121f9565b6001600160a01b03831660008181526020818152604091829020805460ff1916905590519182527f0a77c185771ce3b66e2fb72ef448e439d23489e98d5606f5def3626ce353c462910160405180910390a150610709565b60048303610c7f576001600160a01b03821660009081526020819052604090205460ff1615156001036110cd5760405163062ce07560e01b815260040160405180910390fd5b6001600160a01b0382166000908152602081905260409020805461ff0019169055610709565b6001602052816000526040600020818154811061110f57600080fd5b6000918252602090912001546001600160a01b03169150829050565b6001600160a01b038116600090815260036020908152604080832080548251818502810185019093528083528493849084015b828210156111b3576000848152602090819020604080516060810182526003860290920180546001600160a01b031683526001808201548486015260029091015491830191909152908352909201910161115e565b50505050905060005b8151811015611218578181815181106111d7576111d7612756565b6020026020010151604001518282815181106111f5576111f5612756565b60200260200101516020015114611210575060009392505050565b6001016111bc565b5060019392505050565b6001600160a01b03811660009081526001602090815260409182902080548351818402810184019094528084526060939283018282801561128c57602002820191906000526020600020905b81546001600160a01b0316815260019091019060200180831161126e575b50505050509050919050565b600060416112aa6101008501856128a4565b905010156112ba57506001610594565b6000806112d36112ce6101008701876128a4565b6119ed565b91509150600061131161130b866020527b19457468657265756d205369676e6564204d6573736167653a0a3332600052603c60042090565b84611adc565b905061131d8187611441565b15806113b35750604051632ae132ff60e11b81526001600160a01b037f000000000000000000000000000000000000000000000000000000000000000016906355c265fe9061137090859060040161252c565b602060405180830381865afa15801561138d573d6000803e3d6000fd5b505050506040513d601f19601f820116820180604052508101906113b19190612858565b155b156113c45760019350505050610594565b6001600160a01b038082166000908152600260209081526040808320338452825280832081516080810183528154958616815265ffffffffffff600160a01b87048116948201859052600160d01b9096049095169185018290526001015460ff16151560608501526114369291611b6d565b979650505050505050565b600061144c8361112b565b1561145957506000610594565b36600061146960608501856128a4565b909250905063e9ae5c5360e01b61148460046000848661287a565b61148d916128ea565b6001600160e01b0319160361151a5760006114ac60246004848661287a565b6114b59161291a565b9050806001600160f81b031981166114ea576114df8484896114da60208b018b612272565b611ba5565b945050505050610594565b6001600160f81b03198116600160f81b03611517576114df84848961151260208b018b612272565b611c0e565b50505b506000949350505050565b6060600061153583850185612938565b5090508061154282611cfc565b6040516020016115539291906129df565b6040516020818303038152906040529150505b949350505050565b6001600160a01b0381166000908152600260209081526040808320338452909152812054600160d01b900465ffffffffffff1690036115cb5760405163c2b01d0d60e01b81526001600160a01b03821660048201526024016106f1565b6001600160a01b038116600090815260026020908152604080832033845290915290205442600160d01b90910465ffffffffffff161080159061161457506116128161112b565b155b1561163d576040516333530de160e11b81526001600160a01b03821660048201526024016106f1565b6001600160a01b03811660008181526002602090815260408083203384528252808320838155600101805460ff1916905592825260039052908120611681916121d5565b336000908152600160205260408120905b815481101561178e57826001600160a01b03168282815481106116b7576116b7612756565b6000918252602090912001546001600160a01b03160361178657815482906116e190600190612a19565b815481106116f1576116f1612756565b9060005260206000200160009054906101000a90046001600160a01b031682828154811061172157611721612756565b9060005260206000200160006101000a8154816001600160a01b0302191690836001600160a01b031602179055508180548061175f5761175f612a2c565b600082815260209020810160001990810180546001600160a01b031916905501905561178e565b600101611692565b50604080516001600160a01b03841681523360208201527f706ea365cea39b6126a016efcc42035ba279421ceb73c604f9bd53fdb0841ee2910160405180910390a15050565b60606117df33611cfc565b905090565b6000600182148061059457505060041490565b600060405163d623472560e01b815260040160405180910390fd5b60008061181e84611222565b8051909150600090815b8181101561196d5760006003600086848151811061184857611848612756565b60200260200101516001600160a01b03166001600160a01b03168152602001908152602001600020805480602002602001604051908101604052809291908181526020016000905b828210156118e5576000848152602090819020604080516060810182526003860290920180546001600160a01b0316835260018082015484860152600290910154918301919091529083529092019101611890565b5050825192935060009150505b8181101561195f57600083828151811061190e5761190e612756565b60200260200101519050896001600160a01b031681600001516001600160a01b03160361195657806040015181602001516119499190612a19565b6119539088612a42565b96505b506001016118f2565b508260010192505050611828565b509095945050505050565b6040516370a0823160e01b81526001600160a01b038381166004830152600091908316906370a0823190602401602060405180830381865afa1580156119c2573d6000803e3d6000fd5b505050506040513d601f19601f820116820180604052508101906119e69190612a55565b9392505050565b60608060006119ff602082868861287a565b611a089161291a565b90506000611a1a60406020878961287a565b611a239161291a565b9050600086866040818110611a3a57611a3a612756565b919091013560f81c915060009050611a55876041818b61287a565b8080601f016020809104026020016040519081016040528093929190818152602001838380828437600092018290525060408051602081018b90529081018990526001600160f81b031960f889901b166060820152949550936061019250611abb915050565b60408051601f198184030181529190529650909450505050505b9250929050565b6040516001908360005260208301516040526040835103611b1857604083015160ff81901c601b016020526001600160ff1b0316606052611b3e565b6041835103611b3957606083015160001a6020526040830151606052611b3e565b600091505b6020600160806000855afa5191503d611b5f57638baa579f6000526004601cfd5b600060605260405292915050565b600060d08265ffffffffffff16901b60a08465ffffffffffff16901b85611b95576000611b98565b60015b60ff161717949350505050565b6000803681611bbf611bba886064818c61287a565b611fce565b93509350509250600080611bd3848461201f565b935050509150611be2826120c8565b611bf457600095505050505050611566565b611c00888883886120de565b9a9950505050505050505050565b60003681611c30611c22876064818b61287a565b508035016020810191903590565b9150915060005b81811015611cee57600080611c7c858585818110611c5757611c57612756565b9050602002810190611c699190612a6e565b611c779060408101906128a4565b61201f565b935050509150611c8b826120c8565b1580611cd15750611ccf888883888888818110611caa57611caa612756565b9050602002810190611cbc9190612a6e565b611cca906020810190612272565b6120de565b155b15611ce457600095505050505050611566565b5050600101611c37565b506001979650505050505050565b60606000611d0983611222565b604080516000808252602082019092529192509081611d4a565b6040805180820190915260008082526020820152815260200190600190039081611d235790505b5090506000805b8351811015611fc457600060036000868481518110611d7257611d72612756565b60200260200101516001600160a01b03166001600160a01b03168152602001908152602001600020805480602002602001604051908101604052809291908181526020016000905b82821015611e0f576000848152602090819020604080516060810182526003860290920180546001600160a01b0316835260018082015484860152600290910154918301919091529083529092019101611dba565b50505050905060005b8151811015611fba576000828281518110611e3557611e35612756565b60200260200101516000015190506000805b86811015611e9657826001600160a01b0316888281518110611e6b57611e6b612756565b6020026020010151600001516001600160a01b031603611e8e5760019150611e96565b600101611e47565b5080611fb0576000611ea9876001612a42565b6001600160401b03811115611ec057611ec06125f7565b604051908082528060200260200182016040528015611f0557816020015b6040805180820190915260008082526020820152815260200190600190039081611ede5790505b50905060005b87811015611f5257888181518110611f2557611f25612756565b6020026020010151828281518110611f3f57611f3f612756565b6020908102919091010152600101611f0b565b506000611f5f8c85611812565b90506040518060400160405280856001600160a01b0316815260200182815250828981518110611f9157611f91612756565b60200260200101819052508198508780611faa90612a8e565b98505050505b5050600101611e18565b5050600101611d51565b5090949350505050565b6000803681611fe0601482878961287a565b611fe991612aa7565b60601c9350611ffc60346014878961287a565b6120059161291a565b9250612014856034818961287a565b949793965094505050565b600080808080612032600482888a61287a565b61203b916128ea565b9050612046816120c8565b61205d5750600093508392508291508190506120bf565b600061206d60246010898b61287a565b61207691612aa7565b60601c9050600061208b604460308a8c61287a565b61209491612aa7565b60601c905060006120a9606460448b8d61287a565b6120b29161291a565b9397509195509350909150505b92959194509250565b6001600160e01b0319166323b872dd60e01b1490565b6001600160a01b0384166000908152600360205260408120815b81548110156121c857836001600160a01b031682828154811061211d5761211d612756565b60009182526020909120600390910201546001600160a01b0316036121c057846121478786611978565b10158015612177575081818154811061216257612162612756565b90600052602060002090600302016001015485145b156121c0578482828154811061218f5761218f612756565b906000526020600020906003020160020160008282546121af9190612a42565b909155506001935061156692505050565b6001016120f8565b5060009695505050505050565b50805460008255600302906000526020600020908101906121f69190612217565b50565b50805460008255906000526020600020908101906121f69190612248565b5b808211156122445780546001600160a01b03191681556000600182018190556002820155600301612218565b5090565b5b808211156122445760008155600101612249565b6001600160a01b03811681146121f657600080fd5b60006020828403121561228457600080fd5b81356119e68161225d565b602080825282518282018190526000919060409081850190868401855b828110156122e457815180516001600160a01b03168552868101518786015285015185850152606090930192908501906001016122ac565b5091979650505050505050565b60008083601f84011261230357600080fd5b5081356001600160401b0381111561231a57600080fd5b602083019150836020828501011115611ad557600080fd5b6000806020838503121561234557600080fd5b82356001600160401b0381111561235b57600080fd5b612367858286016122f1565b90969095509350505050565b6020808252825182820181905260009190848201906040850190845b818110156123b45783516001600160a01b03168352928401929184019160010161238f565b50909695505050505050565b600080604083850312156123d357600080fd5b82356123de8161225d565b915060208301356123ee8161225d565b809150509250929050565b6000806040838503121561240c57600080fd5b82356124178161225d565b946020939093013593505050565b6000610120828403121561243857600080fd5b50919050565b6000806040838503121561245157600080fd5b82356001600160401b0381111561246757600080fd5b61247385828601612425565b95602094909401359450505050565b6000806040838503121561249557600080fd5b82356124a08161225d565b915060208301356001600160401b038111156124bb57600080fd5b6124c785828601612425565b9150509250929050565b600080600080606085870312156124e757600080fd5b84356124f28161225d565b93506020850135925060408501356001600160401b0381111561251457600080fd5b612520878288016122f1565b95989497509550505050565b60006020808352835180602085015260005b8181101561255a5785810183015185820160400152820161253e565b506000604082860101526040601f19601f8301168501019250505092915050565b60008151808452602080850194506020840160005b838110156125c057815180516001600160a01b031688528301518388015260409096019590820190600101612590565b509495945050505050565b6020815260006119e6602083018461257b565b6000602082840312156125f057600080fd5b5035919050565b634e487b7160e01b600052604160045260246000fd5b604080519081016001600160401b038111828210171561262f5761262f6125f7565b60405290565b604051601f8201601f191681016001600160401b038111828210171561265d5761265d6125f7565b604052919050565b600082601f83011261267657600080fd5b813560206001600160401b03821115612691576126916125f7565b61269f818360051b01612635565b82815260069290921b840181019181810190868411156126be57600080fd5b8286015b8481101561270657604081890312156126db5760008081fd5b6126e361260d565b81356126ee8161225d565b815281850135858201528352918301916040016126c2565b509695505050505050565b6000806040838503121561272457600080fd5b823561272f8161225d565b915060208301356001600160401b0381111561274a57600080fd5b6124c785828601612665565b634e487b7160e01b600052603260045260246000fd5b803565ffffffffffff8116811461278257600080fd5b919050565b6000806000806080858703121561279d57600080fd5b84356127a88161225d565b93506127b66020860161276c565b92506127c46040860161276c565b915060608501356001600160401b038111156127df57600080fd5b6127eb87828801612665565b91505092959194509250565b60006020828403121561280957600080fd5b81516119e68161225d565b6001600160a01b03848116825283166020820152606081016005831061284a57634e487b7160e01b600052602160045260246000fd5b826040830152949350505050565b60006020828403121561286a57600080fd5b815180151581146119e657600080fd5b6000808585111561288a57600080fd5b8386111561289757600080fd5b5050820193919092039150565b6000808335601e198436030181126128bb57600080fd5b8301803591506001600160401b038211156128d557600080fd5b602001915036819003821315611ad557600080fd5b6001600160e01b031981358181169160048510156129125780818660040360031b1b83161692505b505092915050565b8035602083101561059457600019602084900360031b1b1692915050565b6000806040838503121561294b57600080fd5b82356129568161225d565b91506020838101356001600160401b038082111561297357600080fd5b818601915086601f83011261298757600080fd5b813581811115612999576129996125f7565b6129ab601f8201601f19168501612635565b915080825287848285010111156129c157600080fd5b80848401858401376000848284010152508093505050509250929050565b6001600160a01b03831681526040602082018190526000906115669083018461257b565b634e487b7160e01b600052601160045260246000fd5b8181038181111561059457610594612a03565b634e487b7160e01b600052603160045260246000fd5b8082018082111561059457610594612a03565b600060208284031215612a6757600080fd5b5051919050565b60008235605e19833603018112612a8457600080fd5b9190910192915050565b600060018201612aa057612aa0612a03565b5060010190565b6bffffffffffffffffffffffff1981358181169160148510156129125760149490940360031b84901b169092169291505056fea2646970667358221220165eaba5e199a600f8895a736464205114f0741828ff498e1a9064509823a0af64736f6c63430008170033",
        "linkReferences": {}
    },
    "methodIdentifiers": {
        "cumulativeLockedForWallet()": "db082514",
        "disableSessionKey(address)": "d8d38e42",
        "enableSessionKey(bytes)": "495079a0",
        "getLockedTokensForSessionKey(address)": "07f82e68",
        "getSessionKeyData(address)": "110891c1",
        "getSessionKeysByWallet()": "420e59d9",
        "getSessionKeysByWallet(address)": "94b2a3e3",
        "hookMultiPlexer()": "9b6e35a0",
        "isInitialized(address)": "d60b347f",
        "isModuleType(uint256)": "ecd05961",
        "isSessionClaimed(address)": "8b343e47",
        "isValidSignatureWithSender(address,bytes32,bytes)": "f551e2ee",
        "lockedTokens(address,uint256)": "53719b6e",
        "moduleInitialized(address)": "c67e8529",
        "onInstall(bytes)": "6d61fe70",
        "onUninstall(bytes)": "8a91b0e3",
        "postCheck(bytes)": "173bf7da",
        "preCheck(address,uint256,bytes)": "d68f6025",
        "proofVerifier()": "7fa417b3",
        "sessionData(address,address)": "52721fdd",
        "tokenTotalLockedForWallet(address)": "015187ed",
        "validateSessionKeyParams(address,(address,uint256,bytes,bytes,bytes32,uint256,bytes32,bytes,bytes))": "c037ee19",
        "validateUserOp((address,uint256,bytes,bytes,bytes32,uint256,bytes32,bytes,bytes),bytes32)": "97003203",
        "walletSessionKeys(address,uint256)": "8aaa6a40"
    },
    "id": 139
}