{
    "abi": [
        {
            "type": "constructor",
            "inputs": [
                {
                    "name": "_registry",
                    "type": "address",
                    "internalType": "contract IERC7484"
                }
            ],
            "stateMutability": "nonpayable"
        },
        {
            "type": "function",
            "name": "REGISTRY",
            "inputs": [],
            "outputs": [
                {
                    "name": "",
                    "type": "address",
                    "internalType": "contract IERC7484"
                }
            ],
            "stateMutability": "view"
        },
        {
            "type": "function",
            "name": "addHook",
            "inputs": [
                {
                    "name": "hook",
                    "type": "address",
                    "internalType": "address"
                },
                {
                    "name": "hookType",
                    "type": "uint8",
                    "internalType": "enum HookType"
                }
            ],
            "outputs": [],
            "stateMutability": "nonpayable"
        },
        {
            "type": "function",
            "name": "addSigHook",
            "inputs": [
                {
                    "name": "hook",
                    "type": "address",
                    "internalType": "address"
                },
                {
                    "name": "sig",
                    "type": "bytes4",
                    "internalType": "bytes4"
                },
                {
                    "name": "hookType",
                    "type": "uint8",
                    "internalType": "enum HookType"
                }
            ],
            "outputs": [],
            "stateMutability": "nonpayable"
        },
        {
            "type": "function",
            "name": "getHooks",
            "inputs": [
                {
                    "name": "smartAccount",
                    "type": "address",
                    "internalType": "address"
                }
            ],
            "outputs": [
                {
                    "name": "hooks",
                    "type": "address[]",
                    "internalType": "address[]"
                }
            ],
            "stateMutability": "view"
        },
        {
            "type": "function",
            "name": "hasHook",
            "inputs": [
                {
                    "name": "walletAddress",
                    "type": "address",
                    "internalType": "address"
                },
                {
                    "name": "hookAddress",
                    "type": "address",
                    "internalType": "address"
                },
                {
                    "name": "hookType",
                    "type": "uint8",
                    "internalType": "enum HookType"
                }
            ],
            "outputs": [
                {
                    "name": "",
                    "type": "bool",
                    "internalType": "bool"
                }
            ],
            "stateMutability": "view"
        },
        {
            "type": "function",
            "name": "isInitialized",
            "inputs": [
                {
                    "name": "smartAccount",
                    "type": "address",
                    "internalType": "address"
                }
            ],
            "outputs": [
                {
                    "name": "",
                    "type": "bool",
                    "internalType": "bool"
                }
            ],
            "stateMutability": "view"
        },
        {
            "type": "function",
            "name": "isModuleType",
            "inputs": [
                {
                    "name": "typeID",
                    "type": "uint256",
                    "internalType": "uint256"
                }
            ],
            "outputs": [
                {
                    "name": "",
                    "type": "bool",
                    "internalType": "bool"
                }
            ],
            "stateMutability": "pure"
        },
        {
            "type": "function",
            "name": "name",
            "inputs": [],
            "outputs": [
                {
                    "name": "",
                    "type": "string",
                    "internalType": "string"
                }
            ],
            "stateMutability": "pure"
        },
        {
            "type": "function",
            "name": "onInstall",
            "inputs": [
                {
                    "name": "data",
                    "type": "bytes",
                    "internalType": "bytes"
                }
            ],
            "outputs": [],
            "stateMutability": "nonpayable"
        },
        {
            "type": "function",
            "name": "onUninstall",
            "inputs": [
                {
                    "name": "",
                    "type": "bytes",
                    "internalType": "bytes"
                }
            ],
            "outputs": [],
            "stateMutability": "nonpayable"
        },
        {
            "type": "function",
            "name": "postCheck",
            "inputs": [
                {
                    "name": "hookData",
                    "type": "bytes",
                    "internalType": "bytes"
                }
            ],
            "outputs": [],
            "stateMutability": "nonpayable"
        },
        {
            "type": "function",
            "name": "preCheck",
            "inputs": [
                {
                    "name": "msgSender",
                    "type": "address",
                    "internalType": "address"
                },
                {
                    "name": "msgValue",
                    "type": "uint256",
                    "internalType": "uint256"
                },
                {
                    "name": "msgData",
                    "type": "bytes",
                    "internalType": "bytes"
                }
            ],
            "outputs": [
                {
                    "name": "hookData",
                    "type": "bytes",
                    "internalType": "bytes"
                }
            ],
            "stateMutability": "nonpayable"
        },
        {
            "type": "function",
            "name": "removeHook",
            "inputs": [
                {
                    "name": "hook",
                    "type": "address",
                    "internalType": "address"
                },
                {
                    "name": "hookType",
                    "type": "uint8",
                    "internalType": "enum HookType"
                }
            ],
            "outputs": [],
            "stateMutability": "nonpayable"
        },
        {
            "type": "function",
            "name": "removeSigHook",
            "inputs": [
                {
                    "name": "hook",
                    "type": "address",
                    "internalType": "address"
                },
                {
                    "name": "sig",
                    "type": "bytes4",
                    "internalType": "bytes4"
                },
                {
                    "name": "hookType",
                    "type": "uint8",
                    "internalType": "enum HookType"
                }
            ],
            "outputs": [],
            "stateMutability": "nonpayable"
        },
        {
            "type": "function",
            "name": "version",
            "inputs": [],
            "outputs": [
                {
                    "name": "",
                    "type": "string",
                    "internalType": "string"
                }
            ],
            "stateMutability": "pure"
        },
        {
            "type": "event",
            "name": "AccountInitialized",
            "inputs": [
                {
                    "name": "account",
                    "type": "address",
                    "indexed": true,
                    "internalType": "address"
                }
            ],
            "anonymous": false
        },
        {
            "type": "event",
            "name": "AccountUninitialized",
            "inputs": [
                {
                    "name": "account",
                    "type": "address",
                    "indexed": true,
                    "internalType": "address"
                }
            ],
            "anonymous": false
        },
        {
            "type": "event",
            "name": "HookAdded",
            "inputs": [
                {
                    "name": "account",
                    "type": "address",
                    "indexed": true,
                    "internalType": "address"
                },
                {
                    "name": "hook",
                    "type": "address",
                    "indexed": true,
                    "internalType": "address"
                },
                {
                    "name": "hookType",
                    "type": "uint8",
                    "indexed": false,
                    "internalType": "enum HookType"
                }
            ],
            "anonymous": false
        },
        {
            "type": "event",
            "name": "HookRemoved",
            "inputs": [
                {
                    "name": "account",
                    "type": "address",
                    "indexed": true,
                    "internalType": "address"
                },
                {
                    "name": "hook",
                    "type": "address",
                    "indexed": true,
                    "internalType": "address"
                },
                {
                    "name": "hookType",
                    "type": "uint8",
                    "indexed": false,
                    "internalType": "enum HookType"
                }
            ],
            "anonymous": false
        },
        {
            "type": "event",
            "name": "SigHookAdded",
            "inputs": [
                {
                    "name": "account",
                    "type": "address",
                    "indexed": true,
                    "internalType": "address"
                },
                {
                    "name": "hook",
                    "type": "address",
                    "indexed": true,
                    "internalType": "address"
                },
                {
                    "name": "hookType",
                    "type": "uint8",
                    "indexed": false,
                    "internalType": "enum HookType"
                },
                {
                    "name": "sig",
                    "type": "bytes4",
                    "indexed": false,
                    "internalType": "bytes4"
                }
            ],
            "anonymous": false
        },
        {
            "type": "event",
            "name": "SigHookRemoved",
            "inputs": [
                {
                    "name": "account",
                    "type": "address",
                    "indexed": true,
                    "internalType": "address"
                },
                {
                    "name": "hook",
                    "type": "address",
                    "indexed": true,
                    "internalType": "address"
                },
                {
                    "name": "hookType",
                    "type": "uint8",
                    "indexed": false,
                    "internalType": "enum HookType"
                },
                {
                    "name": "sig",
                    "type": "bytes4",
                    "indexed": false,
                    "internalType": "bytes4"
                }
            ],
            "anonymous": false
        },
        {
            "type": "error",
            "name": "AlreadyInitialized",
            "inputs": [
                {
                    "name": "smartAccount",
                    "type": "address",
                    "internalType": "address"
                }
            ]
        },
        {
            "type": "error",
            "name": "HooksNotSorted",
            "inputs": []
        },
        {
            "type": "error",
            "name": "InvalidDataLength",
            "inputs": [
                {
                    "name": "dataLength",
                    "type": "uint256",
                    "internalType": "uint256"
                }
            ]
        },
        {
            "type": "error",
            "name": "NotInitialized",
            "inputs": [
                {
                    "name": "smartAccount",
                    "type": "address",
                    "internalType": "address"
                }
            ]
        },
        {
            "type": "error",
            "name": "SubHookPostCheckError",
            "inputs": [
                {
                    "name": "subHook",
                    "type": "address",
                    "internalType": "address"
                }
            ]
        },
        {
            "type": "error",
            "name": "SubHookPreCheckError",
            "inputs": [
                {
                    "name": "subHook",
                    "type": "address",
                    "internalType": "address"
                }
            ]
        },
        {
            "type": "error",
            "name": "UnsupportedHookType",
            "inputs": [
                {
                    "name": "hookType",
                    "type": "uint8",
                    "internalType": "enum HookType"
                }
            ]
        }
    ],
    "bytecode": {
        "object": "0x60a06040523480156200001157600080fd5b5060405162002a1c38038062002a1c833981016040819052620000349162000046565b6001600160a01b031660805262000078565b6000602082840312156200005957600080fd5b81516001600160a01b03811681146200007157600080fd5b9392505050565b60805161297b620000a16000396000818160ff0152818161065d0152610c8e015261297b6000f3fe608060405234801561001057600080fd5b50600436106100f55760003560e01c80638a91b0e311610097578063db4a84de11610066578063db4a84de1461023d578063de03f40814610250578063ecd0596114610270578063ed3362521461028457600080fd5b80638a91b0e3146101e1578063c9a3e5a8146101f4578063d60b347f14610207578063d68f60251461022a57600080fd5b806354fd4d50116100d357806354fd4d5014610187578063606cd472146101a85780636d61fe70146101bb5780637ecfc9d4146101ce57600080fd5b806306433b1b146100fa57806306fdde031461013e578063173bf7da14610172575b600080fd5b6101217f000000000000000000000000000000000000000000000000000000000000000081565b6040516001600160a01b0390911681526020015b60405180910390f35b60408051808201909152600f81526e2437b7b5a6bab63a34a83632bc32b960891b60208201525b60405161013591906122f9565b610185610180366004612355565b610297565b005b6040805180820190915260058152640312e302e360dc1b6020820152610165565b6101856101b63660046123c2565b610312565b6101856101c9366004612355565b610320565b6101856101dc3660046123c2565b6105e8565b6101856101ef366004612355565b610808565b61018561020236600461240d565b610946565b61021a610215366004612450565b610a46565b6040519015158152602001610135565b61016561023836600461246b565b610a5d565b61018561024b36600461240d565b610c19565b61026361025e366004612450565b610e09565b60405161013591906124c5565b61021a61027e366004612512565b60041490565b61021a61029236600461252b565b610f96565b813582016020810190358060005b8181101561030a57368484838181106102c0576102c0612557565b90506020028101906102d2919061256d565b90506103016102e4602083018361258d565b6102f16020850185612450565b6001600160a01b03169190610ff8565b506001016102a5565b505050505050565b61031c82826110bc565b5050565b604481101561034a57604051637b6d8a9d60e11b8152600481018290526024015b60405180910390fd5b36600061035a83604481876125d4565b9150915061036733610a46565b15610387576040516393360fbf60e01b8152336004820152602401610341565b3660003660003660003660003660006103de8c602081358201818101939035928281013581018084019390359260408301358301808301939035926060820135820180820193903592608081013501918201913590565b995099509950995099509950995099509950995060006103fd336111d1565b90506104098b8b6111eb565b60008080526001820160205260409020610424908c8c6121f2565b506000808052600182016020526040812054905b81811015610502576000808052600184016020526040812080548390811061046257610462612557565b600091825260209182902001546040516001600160a01b0390911692508291636d61fe7091610498916004910190815260200190565b6040516020818303038152906040526040518263ffffffff1660e01b81526004016104c391906122f9565b600060405180830381600087803b1580156104dd57600080fd5b505af11580156104f1573d6000803e3d6000fd5b505060019093019250610438915050565b5061050d8a8a6111eb565b60026000908152600183016020526040902061052a908b8b6121f2565b5061053588886111eb565b60016000818152908301602052604090206105519089896121f2565b5061058e868660028501600060035b6004811115610571576105716125fe565b81526020019081526020016000206112879092919063ffffffff16565b6105a084846002850160006004610560565b815460ff1916600117825560405133907f9b44a2c7f9f0b5aa4e7da60d8a2325796c57f93a45559d66515743ffbd8a610390600090a250505050505050505050505050505050565b80600481818111156105fc576105fc6125fe565b60ff16116107e85761060d33610a46565b61062c5760405163f91bd6f160e01b8152336004820152602401610341565b60405163529562a160e01b8152336004808301919091526001600160a01b03858116602484015260448301919091527f0000000000000000000000000000000000000000000000000000000000000000169063529562a19060640160006040518083038186803b15801561069f57600080fd5b505afa1580156106b3573d6000803e3d6000fd5b50505050826001600160a01b0316636d61fe7060046040516020016106da91815260200190565b6040516020818303038152906040526040518263ffffffff1660e01b815260040161070591906122f9565b600060405180830381600087803b15801561071f57600080fd5b505af1158015610733573d6000803e3d6000fd5b50505050610740336111d1565b6001016000836004811115610757576107576125fe565b6004811115610768576107686125fe565b815260208082019290925260409081016000908120805460018101825590825292902090910180546001600160a01b0319166001600160a01b038616908117909155905133907fd9d6f91085b77c1067ad992120cbf7b554a1a2fa243347c390c9fe9cd39c807f906107db908690612636565b60405180910390a3505050565b80604051637e5cb9cf60e01b81526004016103419190612636565b505050565b6000610813336111d1565b600080805260018201602052604081209192506108309190612255565b6000808052600182016020526040812054905b81811015610897576000808052600184016020526040812080548390811061086d5761086d612557565b60009182526020822001546001600160a01b0316915061088e9082906110bc565b50600101610843565b5060016000818152908301602052604081206108b291612255565b6002600090815260018301602052604081206108cd91612255565b6108fd60028301600060035b60048111156108ea576108ea6125fe565b8152602001908152602001600020611427565b61090d60028301600060046108d9565b815460ff1916825560405133907fa026ec5b8c218bf792bd8f924dcfeae57f91cc9fbd6211e07073e1807a2d371890600090a250505050565b61094f33610a46565b61096e5760405163f91bd6f160e01b8152336004820152602401610341565b6000610979336111d1565b90506000816002016000846004811115610995576109956125fe565b60048111156109a6576109a66125fe565b8152602080820192909252604090810160009081206001600160e01b031988168252600181019093522080549192506109df90876114a5565b806001036109f1576109f18286611576565b856001600160a01b0316336001600160a01b03167f537ca4d578c18f30001daec72387f01c24b0008e426ae629c494d9ddeb38dfb28688604051610a36929190612644565b60405180910390a3505050505050565b600080610a52836111d1565b5460ff169392505050565b60606000610a6a336111d1565b90506000610a7b60048286886125d4565b610a8491612668565b6000808052600184016020908152604080832080548251818502810185019093528083529495509293909291830182828015610ae957602002820191906000526020600020905b81546001600160a01b03168152600190910190602001808311610acb575b50505050509050610baa83600201600060036004811115610b0c57610b0c6125fe565b6004811115610b1d57610b1d6125fe565b8152602080820192909252604090810160009081206001600160e01b031987168252600101835281902080548251818502810185019093528083529192909190830182828015610b9657602002820191906000526020600020905b81546001600160a01b03168152600190910190602001808311610b78575b50505050508261165a90919063ffffffff16565b610bbd6001600160e01b031983166116e9565b15610bce57610bce81848888611720565b610bd7816119cf565b610be0816119db565b610bed81898989896119e4565b604051602001610bfd9190612698565b6040516020818303038152906040529350505050949350505050565b8060048181811115610c2d57610c2d6125fe565b60ff16116107e857610c3e33610a46565b610c5d5760405163f91bd6f160e01b8152336004820152602401610341565b60405163529562a160e01b8152336004808301919091526001600160a01b03868116602484015260448301919091527f0000000000000000000000000000000000000000000000000000000000000000169063529562a19060640160006040518083038186803b158015610cd057600080fd5b505afa158015610ce4573d6000803e3d6000fd5b505050506000610cf3336111d1565b9050806002016000846004811115610d0d57610d0d6125fe565b6004811115610d1e57610d1e6125fe565b8152602080820192909252604090810160009081206001600160e01b031988168252600190810184529181208054928301815581529182200180546001600160a01b0319166001600160a01b038816179055610db49085906002840190866004811115610d8d57610d8d6125fe565b6004811115610d9e57610d9e6125fe565b8152602081019190915260400160002090611acf565b846001600160a01b0316336001600160a01b03167fd6d32ae24f8583a616f52dcc45acdb3c42176a447a5e7b827aacc7b97801e4c78587604051610df9929190612644565b60405180910390a3505b50505050565b60606000610e16836111d1565b60008080526001820160209081526040918290208054835181840281018401909452808452939450919290830182828015610e7a57602002820191906000526020600020905b81546001600160a01b03168152600190910190602001808311610e5c575b50505050509150610f2481600101600060016004811115610e9d57610e9d6125fe565b6004811115610eae57610eae6125fe565b8152602001908152602001600020805480602002602001604051908101604052809291908181526020018280548015610f1057602002820191906000526020600020905b81546001600160a01b03168152600190910190602001808311610ef2575b50505050508361165a90919063ffffffff16565b610f346001820160006002610e9d565b610f6e60028201600060035b6004811115610f5157610f516125fe565b815260200190815260200160002083611b2590919063ffffffff16565b610f7e6002820160006004610f40565b610f87826119cf565b610f90826119db565b50919050565b600080610fa2856111d1565b9050610fed84826001016000866004811115610fc057610fc06125fe565b6004811115610fd157610fd16125fe565b8152602001908152602001600020611c0590919063ffffffff16565b9150505b9392505050565b60405160009061101b90630b9dfbed60e11b908590859030903390602001612717565b60405160208183030381529060405290506000846001600160a01b0316826040516110469190612758565b6000604051808303816000865af19150503d8060008114611083576040519150601f19603f3d011682016040523d82523d6000602084013e611088565b606091505b50509050806110b557604051634d3dd82d60e11b81526001600160a01b0386166004820152602401610341565b5050505050565b604080516004602082015233818301528151808203830181526060820192839052638a91b0e360e01b9092526001600160a01b03841691638a91b0e39161110691906064016122f9565b600060405180830381600087803b15801561112057600080fd5b505af1158015611134573d6000803e3d6000fd5b505050506000611143336111d1565b905061118e83826001016000856004811115611161576111616125fe565b6004811115611172576111726125fe565b81526020019081526020016000206114a590919063ffffffff16565b826001600160a01b0316336001600160a01b03167f993b3a1292b23c6060a5b146cc7fc72f7a31d91c58c16df5c12a3c045667065e846040516107db9190612636565b6001600160a01b0316600090815260208190526040902090565b8060015b81811015610e035783838281811061120957611209612557565b905060200201602081019061121e9190612450565b6001600160a01b03168484611234600185612780565b81811061124357611243612557565b90506020020160208101906112589190612450565b6001600160a01b03161061127f57604051630f702d5360e21b815260040160405180910390fd5b6001016111ef565b8060008167ffffffffffffffff8111156112a3576112a3612793565b6040519080825280602002602001820160405280156112cc578160200160208202803683370190505b50905060005b828110156113a057368585838181106112ed576112ed612557565b90506020028101906112ff919061256d565b905061131661131160208301836127a9565b6111eb565b61132360208201826127f3565b6001600160e01b03191660001c83838151811061134257611342612557565b60200260200101818152505080806020019061135e91906127a9565b60018901600061137160208601866127f3565b6001600160e01b031916815260208101919091526040016000206113969290916121f2565b50506001016112d2565b506113aa81611c1d565b6113b381611c72565b8051915060005b8281101561030a57856000018282815181106113d8576113d8612557565b6020908102919091018101518254600180820185556000948552929093206008840401805463ffffffff60079095166004026101000a948502191660e09290921c9390930217909155016113ba565b805460005b818110156114995782600101600084600001838154811061144f5761144f612557565b6000918252602080832060088304015460079092166004026101000a90910460e01b6001600160e01b0319168352820192909252604001812061149191612255565b60010161142c565b5061031c826000612273565b60006114b18383611cbb565b905060001981036114c157505050565b825483906114d190600190612780565b815481106114e1576114e1612557565b9060005260206000200160009054906101000a90046001600160a01b031683828154811061151157611511612557565b9060005260206000200160006101000a8154816001600160a01b0302191690836001600160a01b031602179055508280548061154f5761154f61280e565b600082815260209020810160001990810180546001600160a01b0319169055019055505050565b60006115828383611d1d565b9050600019810361159257505050565b825483906115a290600190612780565b815481106115b2576115b2612557565b90600052602060002090600891828204019190066004029054906101000a900460e01b8382815481106115e7576115e7612557565b90600052602060002090600891828204019190066004026101000a81548163ffffffff021916908360e01c0217905550828054806116275761162761280e565b600082815260209020600860001990920191820401805463ffffffff600460078516026101000a02191690559055505050565b81518151600061166a8284612824565b90508060000361167b575050505050565b8160000361168a575050505050565b8085526020840160005b838110156116e0576020810282015180886116af8489612824565b815181106116bf576116bf612557565b6001600160a01b039092166020928302919091019091015250600101611694565b50505050505050565b60006001600160e01b0319821663e9ae5c5360e01b148061171a57506001600160e01b031982166335a4725960e21b145b92915050565b6000828261173060206064612780565b61173d92606492906125d4565b61174691612837565b905060006117586024600485876125d4565b61176191612837565b9050806001600160f81b031981166118ed576000368161179a886064896117888a83612824565b92611795939291906125d4565b611d8c565b9350935093505082600014611822576002600090815260018a0160209081526040918290208054835181840281018401909452808452611822939283018282801561180e57602002820191906000526020600020905b81546001600160a01b031681526001909101906020018083116117f0575b50505050508b61165a90919063ffffffff16565b60048111156118e5576004600081815260028b01602052604081206118e59260019091019190611854908286886125d4565b61185d91612668565b6001600160e01b0319166001600160e01b031916815260200190815260200160002080548060200260200160405190810160405280929190818152602001828054801561180e576020028201919060005260206000209081546001600160a01b031681526001909101906020018083116117f05750505050508b61165a90919063ffffffff16565b5050506116e0565b6001600160f81b03198116600160f81b036119465761194161193a876119358860648961191a8a83612824565b92611927939291906125d4565b508035016020810191903590565b611ddd565b889061165a565b6116e0565b6001600160f81b0319808216036116e05760016000818152908701602090815260409182902080548351818402810184019094528084526116e093928301828280156119bb57602002820191906000526020600020905b81546001600160a01b0316815260019091019060200180831161199d575b50505050508861165a90919063ffffffff16565b6119d881611c1d565b50565b6119d881611c72565b84516060908067ffffffffffffffff811115611a0257611a02612793565b604051908082528060200260200182016040528015611a4857816020015b604080518082019091526000815260606020820152815260200190600190039081611a205790505b50915060005b81811015611ac4576000888281518110611a6a57611a6a612557565b602002602001015190506040518060400160405280826001600160a01b03168152602001611a9b838b8b8b8b6120de565b815250848381518110611ab057611ab0612557565b602090810291909101015250600101611a4e565b505095945050505050565b6000611adb8383611d1d565b9050600019810361080357508154600181018355600092835260209092206008830401805463ffffffff60079094166004026101000a938402191660e09290921c92909202179055565b805460005b81811015610e0357611bfd836001016000856000018481548110611b5057611b50612557565b90600052602060002090600891828204019190066004029054906101000a900460e01b6001600160e01b0319166001600160e01b0319168152602001908152602001600020805480602002602001604051908101604052809291908181526020018280548015611be957602002820191906000526020600020905b81546001600160a01b03168152600190910190602001808311611bcb575b50505050508561165a90919063ffffffff16565b600101611b2a565b6000600019611c148484611cbb565b14159392505050565b8051600082528060051b82016020601f198185015b8201838111611c6a5780518282018051828111611c5157505050611c32565b5b8186015283018051828111611c525750840152611c32565b505050915250565b60028151106119d8576020810160408201600183510160051b83015b8151835114611ca257602083019250815183525b602082019150808203611c8e57505081900360051c9052565b8154600090815b81811015611d1157836001600160a01b0316858281548110611ce657611ce6612557565b6000918252602090912001546001600160a01b031603611d0957915061171a9050565b600101611cc2565b50600019949350505050565b8154600090815b81811015611d1157836001600160e01b031916858281548110611d4957611d49612557565b90600052602060002090600891828204019190066004029054906101000a900460e01b6001600160e01b03191603611d8457915061171a9050565b600101611d24565b6000803681611d9e60148287896125d4565b611da791612855565b60601c9350611dba6034601487896125d4565b611dc391612837565b9250611dd285603481896125d4565b949793965094505050565b600460009081526002840160205260408120546060919015159083908167ffffffffffffffff811115611e1257611e12612793565b604051908082528060200260200182016040528015611e3b578160200160208202803683370190505b5090506000805b83811015611f6b5736888883818110611e5d57611e5d612557565b9050602002810190611e6f9190612883565b905082158015611e825750602081013515155b15611f04576002600090815260018b8101602090815260409283902080548451818402810184019095528085529296509190830182828015611eed57602002820191906000526020600020905b81546001600160a01b03168152600190910190602001808311611ecf575b5050505050965085611f0457505050505050610ff1565b6004611f13604083018361258d565b90501115611f6257611f28604082018261258d565b611f37916004916000916125d4565b611f4091612837565b60001c848381518110611f5557611f55612557565b6020026020010181815250505b50600101611e42565b5083611f7a5750505050610ff1565b611f8382611c1d565b611f8c82611c72565b8151925060005b838110156120d2576000838281518110611faf57611faf612557565b6020908102919091018101516004600090815260028d01835260408082206001600160e01b03198416835260010190935291822080549193509103611ff55750506120ca565b875160000361205b5780546040805160208084028201810190925282815291839183018282801561204f57602002820191906000526020600020905b81546001600160a01b03168152600190910190602001808311612031575b505050505097506120c7565b6120c7818054806020026020016040519081016040528092919081815260200182805480156120b357602002820191906000526020600020905b81546001600160a01b03168152600190910190602001808311612095575b50505050508961165a90919063ffffffff16565b50505b600101611f93565b50505050509392505050565b60606000866001600160a01b0316868633878760405160200161210393929190612899565b60408051601f19818403018152908290526121229392916024016128d9565b60408051601f19818403018152918152602080830180516001600160e01b031663d68f602560e01b179052905161215e92913091339101612909565b60408051601f198184030181529082905261217891612758565b6000604051808303816000865af19150503d80600081146121b5576040519150601f19603f3d011682016040523d82523d6000602084013e6121ba565b606091505b5092509050806121e857604051635d0eb4ab60e01b81526001600160a01b0388166004820152602401610341565b5095945050505050565b828054828255906000526020600020908101928215612245579160200282015b828111156122455781546001600160a01b0319166001600160a01b03843516178255602090920191600190910190612212565b50612251929150612294565b5090565b50805460008255906000526020600020908101906119d89190612294565b5080546000825560070160089004906000526020600020908101906119d891905b5b808211156122515760008155600101612295565b60005b838110156122c45781810151838201526020016122ac565b50506000910152565b600081518084526122e58160208601602086016122a9565b601f01601f19169290920160200192915050565b602081526000610ff160208301846122cd565b60008083601f84011261231e57600080fd5b50813567ffffffffffffffff81111561233657600080fd5b60208301915083602082850101111561234e57600080fd5b9250929050565b6000806020838503121561236857600080fd5b823567ffffffffffffffff81111561237f57600080fd5b61238b8582860161230c565b90969095509350505050565b80356001600160a01b03811681146123ae57600080fd5b919050565b8035600581106123ae57600080fd5b600080604083850312156123d557600080fd5b6123de83612397565b91506123ec602084016123b3565b90509250929050565b80356001600160e01b0319811681146123ae57600080fd5b60008060006060848603121561242257600080fd5b61242b84612397565b9250612439602085016123f5565b9150612447604085016123b3565b90509250925092565b60006020828403121561246257600080fd5b610ff182612397565b6000806000806060858703121561248157600080fd5b61248a85612397565b935060208501359250604085013567ffffffffffffffff8111156124ad57600080fd5b6124b98782880161230c565b95989497509550505050565b6020808252825182820181905260009190848201906040850190845b818110156125065783516001600160a01b0316835292840192918401916001016124e1565b50909695505050505050565b60006020828403121561252457600080fd5b5035919050565b60008060006060848603121561254057600080fd5b61254984612397565b925061243960208501612397565b634e487b7160e01b600052603260045260246000fd5b60008235603e1983360301811261258357600080fd5b9190910192915050565b6000808335601e198436030181126125a457600080fd5b83018035915067ffffffffffffffff8211156125bf57600080fd5b60200191503681900382131561234e57600080fd5b600080858511156125e457600080fd5b838611156125f157600080fd5b5050820193919092039150565b634e487b7160e01b600052602160045260246000fd5b6005811061263257634e487b7160e01b600052602160045260246000fd5b9052565b6020810161171a8284612614565b604081016126528285612614565b63ffffffff60e01b831660208301529392505050565b6001600160e01b031981358181169160048510156126905780818660040360031b1b83161692505b505092915050565b600060208083018184528085518083526040925060408601915060408160051b87010184880160005b8381101561270957888303603f19018552815180516001600160a01b031684528701518784018790526126f6878501826122cd565b95880195935050908601906001016126c1565b509098975050505050505050565b6001600160e01b031986168152838560048301376001600160601b0319606093841b8116949091016004810194909452911b166018820152602c0192915050565b600082516125838184602087016122a9565b634e487b7160e01b600052601160045260246000fd5b8181038181111561171a5761171a61276a565b634e487b7160e01b600052604160045260246000fd5b6000808335601e198436030181126127c057600080fd5b83018035915067ffffffffffffffff8211156127db57600080fd5b6020019150600581901b360382131561234e57600080fd5b60006020828403121561280557600080fd5b610ff1826123f5565b634e487b7160e01b600052603160045260246000fd5b8082018082111561171a5761171a61276a565b8035602083101561171a57600019602084900360031b1b1692915050565b6001600160601b031981358181169160148510156126905760149490940360031b84901b1690921692915050565b60008235605e1983360301811261258357600080fd5b6001600160a01b03841681526040602082018190528101829052818360608301376000818301606090810191909152601f909201601f1916010192915050565b60018060a01b038416815282602082015260606040820152600061290060608301846122cd565b95945050505050565b6000845161291b8184602089016122a9565b6001600160601b0319606095861b8116919093019081529290931b1660148201526028019291505056fea2646970667358221220011f7617ba63cfb7efbf171e588386842fe5c07c7271c7617703b5e5c03bfd3b64736f6c63430008170033",
        "linkReferences": {}
    },
    "methodIdentifiers": {
        "REGISTRY()": "06433b1b",
        "addHook(address,uint8)": "7ecfc9d4",
        "addSigHook(address,bytes4,uint8)": "db4a84de",
        "getHooks(address)": "de03f408",
        "hasHook(address,address,uint8)": "ed336252",
        "isInitialized(address)": "d60b347f",
        "isModuleType(uint256)": "ecd05961",
        "name()": "06fdde03",
        "onInstall(bytes)": "6d61fe70",
        "onUninstall(bytes)": "8a91b0e3",
        "postCheck(bytes)": "173bf7da",
        "preCheck(address,uint256,bytes)": "d68f6025",
        "removeHook(address,uint8)": "606cd472",
        "removeSigHook(address,bytes4,uint8)": "c9a3e5a8",
        "version()": "54fd4d50"
    },
    "id": 133
}